:020000040801F1
:100000000000022009830308DD910208E79102083D
:10001000F1910208FB91020805920208000000001D
:100020000000000000000000000000000F92020825
:10003000119202080000000013920208618E02086B
:100040005183030851830308518303085183030834
:100050005183030851830308518303085183030824
:100060005183030851830308518303085183030814
:100070005183030851830308518303085183030804
:1000800051830308518303085183030851830308F4
:1000900051830308518303085183030851830308E4
:1000A00051830308518303085183030851830308D4
:1000B00051830308518303085183030851830308C4
:1000C00051830308518303085183030851830308B4
:1000D00051830308518303085183030851830308A4
:1000E0005183030851830308518303085183030894
:1000F0005183030851830308518303085183030884
:100100005183030851830308818E02085183030839
:100110005183030851830308518303085183030863
:10012000B58E0208518303085183030851830308E5
:100130005183030851830308518303085183030843
:10014000518303085183030851830308ED96020885
:100150005183030851830308518303085183030823
:100160005183030851830308518303085183030813
:100170005183030851830308518303085183030803
:080180005183030851830308B9
:100188002C3906D2A845040076302E392E31382D68
:1001980037372D67346232363066622D646972747F
:1001A80079000000000000006D6173746572000042
:1001B8000000000000000000000000000000000037
:1001C80000000000000000006E68616E0000000082
:1001D80000000000000000006E68616E2D766972F4
:1001E8007475616C2D6D616368696E65000000004F
:1001F8000000000000000000323031392D30382D69
:10020800323700000000000031333A33373A3534D2
:10021800000000000000000053544D424C00000054
:1002280000000000000000000000000000000000C6
:1002380000000000000000000000000009000000AD
:0402480012000000A0
:10024C000080002029A900082965000831650008F4
:10025C003965000841650008496500080000000088
:10026C0000000000000000000000000079A9000858
:10027C00516500080000000079A9000889550008A4
:10028C0079A9000879A9000879A9000879A90008BA
:10029C0079A9000879A9000879A9000879A90008AA
:1002AC0079A9000879A9000879A9000879A900089A
:1002BC0079A9000879A9000879A9000879A900088A
:1002CC0079A9000879A9000879A9000879A900087A
:1002DC005565000879A9000879A9000879A90008D2
:1002EC0079A9000879A9000879A9000879A900085A
:1002FC0079A9000879A9000879A9000879A900084A
:10030C0079A9000879A9000879A9000879A9000839
:10031C0079A9000879A9000879A9000879A9000829
:10032C0079A9000879A9000879A9000879A9000819
:10033C00D555000879A9000879A9000879A9000801
:10034C0000000000000000000000000079A9000877
:10035C0079A9000879A9000879A9000879A90008E9
:10036C0079A9000879A9000879A9000879A90008D9
:10037C0079A9000879A9000800000000000000001D
:10038C0079A9000879A9000879A9000800000000E3
:10039C000000000000000000000000000000000051
:1003AC00000000000000000079A9000879A90008ED
:1003BC0079A9000800000000000000000000000007
:1003CC000000000079A90008320DD64FE07801003A
:1003DC0076302E392E31382D37372D673462323640
:1003EC003066622D646972747900000000000000B0
:1003FC006D61737465720000000000000000000065
:10040C0000000000000000000000000000000000E0
:10041C006E68616E0000000000000000000000002B
:10042C006E68616E2D7669727475616C2D6D616389
:10043C0068696E650000000000000000000000000C
:10044C00323031392D30382D3237000000000000A9
:10045C0031333A33373A34350000000000000000E5
:10046C0053544D424C2D68762D66333033000000CA
:10047C000000000000000000000000000000000070
:10048C00000000000900000012000000FFFFFFFF49
:10049C00FFFFFFFFFFFFFFFFFFFFFFFFFFFFFFFF60
:1004AC00FFFFFFFFFFFFFFFFFFFFFFFFFFFFFFFF50
:1004BC00FFFFFFFFFFFFFFFFFFFFFFFFFFFFFFFF40
:1004CC0010B5054C237833B9044B13B10448AFF382
:1004DC0000800123237010BD780C00200000000068
:1004EC00E079010808B5034B1BB103490348AFF38E
:1004FC00008008BD000000007C0C0020E0790108A1
:10050C00844641EA000313F003036DD1403A41D312
:10051C0051F8043B40F8043B51F8043B40F8043BD1
:10052C0051F8043B40F8043B51F8043B40F8043BC1
:10053C0051F8043B40F8043B51F8043B40F8043BB1
:10054C0051F8043B40F8043B51F8043B40F8043BA1
:10055C0051F8043B40F8043B51F8043B40F8043B91
:10056C0051F8043B40F8043B51F8043B40F8043B81
:10057C0051F8043B40F8043B51F8043B40F8043B71
:10058C0051F8043B40F8043B51F8043B40F8043B61
:10059C00403ABDD2303211D351F8043B40F8043B01
:1005AC0051F8043B40F8043B51F8043B40F8043B41
:1005BC0051F8043B40F8043B103AEDD20C3205D311
:1005CC0051F8043B40F8043B043AF9D2043208D009
:1005DC00D2071CBF11F8013B00F8013B01D30B887B
:1005EC0003806046704700BF082A13D38B078DD059
:1005FC0010F003038AD0C3F10403D21ADB071CBF2B
:10060C0011F8013B00F8013B80D331F8023B20F894
:10061C00023B7BE7043AD9D3013A11F8013B00F8CD
:10062C00013BF9D20B7803704B7843708B78837055
:10063C006046704700000000000000000000000051
:10064C00A2EB0300704700BF02780B78012A28BF89
:10065C009A42F5D16DE9044540EA0104CDE90267FF
:10066C006FF0000C4FEA447212B380EA010414F0EC
:10067C00070F6AD100F0070420F0070004F003050F
:10068C0021F007014FEAC505F0E8042314F0040F2C
:10069C00F1E804670CFA05F462EA040266EA04065F
:1006AC000AD063EA0403624667EA0407664603E07D
:1006BC00F0E80423F1E8046782FA4CF582EA0604B8
:1006CC00A4FA8CF46CBB83FA4CF583EA0705A5FA03
:1006DC008CF595B950E9022351E9026782FA4CF581
:1006EC0082EA0604A4FA8CF483FA4CF583EA070533
:1006FC00A5FA8CF52543DBD09CB92DBAB5FA85F457
:10070C0024F0070427FA04F1DDE9026723FA04F365
:10071C0003F0FF0001F0FF01FDE80445A0EB010030
:10072C00704724BAB4FA84F424F0070426FA04F1CE
:10073C00DDE9026722FA04F202F0FF0001F0FF018A
:10074C00FDE80445A0EB0100704714F0030F3CD109
:10075C0010F0030428D150F8082B51F8083B82FA0A
:10076C004CF582EA0305A5FA8CF55DB950F8042C1A
:10077C0051F8043C82FA4CF582EA0305A5FA8CF593
:10078C00002DE8D02DBAB5FA85F424F0070423FA2D
:10079C0004F122FA04F202F0FF0001F0FF01FDE87F
:1007AC000445A0EB010070474FEAC40420F003009D
:1007BC0050F8082B21F0030151F8083B0CFA04F413
:1007CC0062EA040263EA0403C9E710F003041AD0D6
:1007DC00A1EB040120F00300E40750F8042B06D031
:1007EC000FD28B785FFAA2F4E41A06D12BB1CB7836
:1007FC005FFAB2F4E41A00D11BB920465DF8104B35
:10080C00704701F1040150F8042BCC0721F00301CF
:10081C0051F8043B48D824D222F07F4482FA4CF59C
:10082C0094EA1325A5FA8CF50AD165B951F8043B65
:10083C0084EA0204B4EB036F0ED150F8042BEBE7FF
:10084C004FEA132355E035F07F454DD10878FDE88C
:10085C000445C0F1000070474FEA126203F0FF0339
:10086C0047E002EA1C4482FA4CF594EA1345A5FAD7
:10087C008CF50AD165B951F8043B84EA0204B4EB57
:10088C00034F0CD150F8042BEBE74FEA134330E045
:10089C0015EA1C4528D10B884FEA124229E04FEA91
:1008AC00124203EA1C4324E002F0FF0482FA4CF5E6
:1008BC0094EA1365A5FA8CF50AD165B951F8043B95
:1008CC0084EA0204B4EB032F09D150F8042BEBE7B4
:1008DC004FEA13630DE015F0FF0F05D10B684FEADB
:1008EC00122223F07F4304E04FF00000FDE80445A2
:1008FC00704712BA1BBA82FA4CF482EA0304A4FAC7
:10090C008CF5B5FA85F402FA04F203FA04F34FEA13
:10091C001260FDE80445A0EB136070470000000076
:10092C0000000000000000000000000000000000BB
:10093C0000000000000000000000000000000000AB
:10094C0090F800F06DE9024520F007016FF0000C03
:10095C0010F0070491F820F040F049804FF00004AB
:10096C006FF00700D1E9002391F840F000F1080086
:10097C0082FA4CF2A4FA8CF283FA4CF3A2FA8CF3BE
:10098C004BBBD1E9022382FA4CF200F10800A4FA25
:10099C008CF283FA4CF3A2FA8CF3E3B9D1E9042379
:1009AC0082FA4CF200F10800A4FA8CF283FA4CF3B0
:1009BC00A2FA8CF37BB9D1E9062301F1200182FA6A
:1009CC004CF200F10800A4FA8CF283FA4CF3A2FA70
:1009DC008CF3002BC6D0002A04BF04301A4612BA7E
:1009EC00B2FA82F2FDE8024500EBD2007047D1E981
:1009FC00002304F00305C4F100004FEAC50514F010
:100A0C00040F91F840F00CFA05F562EA05021CBFE0
:100A1C0063EA050362464FF00004A9E700000000FA
:100A2C0001F0FF01102A2BDB10F0070F08D010F893
:100A3C00013B013A8B422DD010F0070F42B3F6D197
:100A4C00F0B441EA012141EA014122F007047FF0B0
:100A5C0000070023F0E80256083C85EA010586EA07
:100A6C00010685FA47F5A3FA87F586FA47F6A5FA43
:100A7C0087F68EB9EED1F0BC01F0FF0102F007024F
:100A8C0032B110F8013B013A83EA010313B1F8D1FA
:100A9C000020704701387047002D06BF35460338DB
:100AAC00073815F0010F07D1013015F4807F02BF14
:100ABC00013015F4C03F0130F0BC0138704700BF65
:100ACC0081F0004102E000BF83F0004330B54FEAF3
:100ADC0041044FEA430594EA050F08BF90EA020F60
:100AEC001FBF54EA000C55EA020C7FEA645C7FEAF3
:100AFC00655C00F0E2804FEA5454D4EB5555B8BF16
:100B0C006D420CDD2C4480EA020281EA030382EA86
:100B1C00000083EA010180EA020281EA0303362D18
:100B2C0088BF30BD11F0004F4FEA01314FF4801CEB
:100B3C004CEA113102D0404261EB410113F0004FFD
:100B4C004FEA03334CEA133302D0524263EB4303B4
:100B5C0094EA050F00F0A780A4F10104D5F1200E52
:100B6C000DDB02FA0EFC22FA05F2801841F10001AD
:100B7C0003FA0EF2801843FA05F359410EE0A5F181
:100B8C0020050EF1200E012A03FA0EFC28BF4CF0B2
:100B9C00020C43FA05F3C01851EBE37101F0004568
:100BAC0007D54FF0000EDCF1000C7EEB00006EEB75
:100BBC000101B1F5801F1BD3B1F5001F0CD34908FF
:100BCC005FEA30004FEA3C0C04F101044FEA445256
:100BDC0012F5800F80F09A80BCF1004F08BF5FEADD
:100BEC00500C50F1000041EB045141EA050130BDBD
:100BFC005FEA4C0C404141EB010111F4801FA4F160
:100C0C000104E9D191F0000F04BF01460020B1FAB4
:100C1C0081F308BF2033A3F10B03B3F120020CDAEC
:100C2C000C3208DD02F1140CC2F10C0201FA0CF0CA
:100C3C0021FA02F10CE002F11402D8BFC2F1200C2F
:100C4C0001FA02F120FA0CFCDCBF41EA0C019040E5
:100C5C00E41AA2BF01EB0451294330BD6FEA04042E
:100C6C001F3C1CDA0C340EDC04F11404C4F1200219
:100C7C0020FA04F001FA02F340EA030021FA04F32B
:100C8C0045EA030130BDC4F10C04C4F1200220FA82
:100C9C0002F001FA04F340EA0300294630BD21FAC0
:100CAC0004F0294630BD94F0000F83F4801306BF86
:100CBC0081F480110134013D4EE77FEA645C18BF7A
:100CCC007FEA655C29D094EA050F08BF90EA020F11
:100CDC0005D054EA000C04BF1946104630BD91EA09
:100CEC00030F1EBF0021002030BD5FEA545C05D10C
:100CFC004000494128BF41F0004130BD14F580044B
:100D0C003CBF01F5801130BD01F0004545F0FE41BE
:100D1C0041F470014FF0000030BD7FEA645C1ABFF3
:100D2C00194610467FEA655C1CBF0B46024650EA2A
:100D3C00013406BF52EA033591EA030F41F4002156
:100D4C0030BD00BF90F0000F04BF0021704730B5DC
:100D5C004FF4806404F132044FF000054FF00001B1
:100D6C0050E700BF90F0000F04BF0021704730B572
:100D7C004FF4806404F1320410F0004548BF404247
:100D8C004FF000013EE700BF42004FEAE2014FEA9C
:100D9C0031014FEA02701FBF12F07F4393F07F4F77
:100DAC0081F06051704732F07F4208BF704793F07A
:100DBC007F4F04BF41F40021704730B54FF460748D
:100DCC0001F0004521F000411CE700BF50EA010290
:100DDC0008BF704730B54FF000050AE050EA010239
:100DEC0008BF704730B511F0004502D5404261EBA9
:100DFC0041014FF4806404F132045FEA915C3FF4EA
:100E0C00D8AE4FF003025FEADC0C18BF03325FEA86
:100E1C00DC0C18BF033202EBDC02C2F1200300FA37
:100E2C0003FC20FA02F001FA03FE40EA0E0021FA5C
:100E3C0002F11444BDE600BF70B54FF0FF0C4CF44A
:100E4C00E06C1CEA11541DBF1CEA135594EA0C0FFC
:100E5C0095EA0C0F00F0DEF82C4481EA030621EA37
:100E6C004C5123EA4C5350EA013518BF52EA033572
:100E7C0041F4801143F4801338D0A0FB02CE4FF024
:100E8C000005E1FB02E506F00042E0FB03E54FF054
:100E9C000006E1FB03569CF0000F18BF4EF0010E4C
:100EAC00A4F1FF04B6F5007F64F5407404D25FEA48
:100EBC004E0E6D4146EB060642EAC62141EA5551FB
:100ECC004FEAC52040EA5E504FEACE2EB4F1FD0C3D
:100EDC0088BFBCF5E06F1ED8BEF1004F08BF5FEABB
:100EEC00500E50F1000041EB045170BD06F000466D
:100EFC0046EA010140EA020081EA0301B4EB5C041A
:100F0C00C2BFD4EB0C0541EA045170BD41F4801111
:100F1C004FF0000E013C00F3AB8014F1360FDEBF36
:100F2C00002001F0004170BDC4F10004203C35DA12
:100F3C000C341BDC04F11404C4F1200500FA05F395
:100F4C0020FA04F001FA05F240EA020001F0004236
:100F5C0021F0004110EBD37021FA04F642EB0601AC
:100F6C005EEA430E08BF20EAD37070BDC4F10C04D6
:100F7C00C4F1200500FA04F320FA05F001FA04F29A
:100F8C0040EA020001F0004110EBD37041F1000186
:100F9C005EEA430E08BF20EAD37070BDC4F1200591
:100FAC0000FA05F24EEA020E20FA04F301FA05F2F9
:100FBC0043EA020321FA04F001F0004121FA04F2A1
:100FCC0020EA020000EBD3705EEA430E08BF20EA71
:100FDC00D37070BD94F0000F0FD101F000464000AB
:100FEC0041EB010111F4801F08BF013CF7D041EA2D
:100FFC00060195F0000F18BF704703F00046520031
:10100C0043EB030313F4801F08BF013DF7D043EA01
:10101C000603704794EA0C0F0CEA135518BF95EAB7
:10102C000C0F0CD050EA410618BF52EA4306D1D13E
:10103C0081EA030101F000414FF0000070BD50EA5D
:10104C00410606BF1046194652EA430619D094EAE7
:10105C000C0F02D150EA013613D195EA0C0F05D1D1
:10106C0052EA03361CBF104619460AD181EA030125
:10107C0001F0004141F0FE4141F470014FF00000DD
:10108C0070BD41F0FE4141F4780170BD70B54FF078
:10109C00FF0C4CF4E06C1CEA11541DBF1CEA1355F8
:1010AC0094EA0C0F95EA0C0F00F0A7F8A4EB0504DA
:1010BC0081EA030E52EA03354FEA013100F08880D1
:1010CC004FEA03334FF0805545EA131343EA12639A
:1010DC004FEA022245EA111545EA10654FEA00264F
:1010EC000EF000419D4208BF964244F1FD0404F508
:1010FC00407402D25B084FEA3202B61A65EB030564
:10110C005B084FEA32024FF480104FF4002CB6EB20
:10111C00020E75EB030E22BFB61A754640EA0C00A0
:10112C005B084FEA3202B6EB020E75EB030E22BFE0
:10113C00B61A754640EA5C005B084FEA3202B6EB21
:10114C00020E75EB030E22BFB61A754640EA9C00E0
:10115C005B084FEA3202B6EB020E75EB030E22BFB0
:10116C00B61A754640EADC0055EA060E18D04FEA6E
:10117C00051545EA16754FEA06164FEAC30343EA0E
:10118C0052734FEAC2025FEA1C1CC0D111F4801FDB
:10119C000BD141EA00014FF000004FF0004CB6E7D4
:1011AC0011F4801F04BF01430020B4F1FD0C88BF73
:1011BC00BCF5E06F3FF6AFAEB5EB030C04BFB6EB7E
:1011CC00020C5FEA500C50F1000041EB045170BD71
:1011DC000EF0004E4EEA113114EB5C04C2BFD4EB9E
:1011EC000C0541EA045170BD41F480114FF0000E22
:1011FC00013C90E645EA060E8DE60CEA135594EA9E
:10120C000C0F08BF95EA0C0F3FF43BAF94EA0C0FA0
:10121C000AD150EA01347FF434AF95EA0C0F7FF415
:10122C0025AF104619462CE795EA0C0F06D152EA69
:10123C0003353FF4FDAE1046194622E750EA41064D
:10124C0018BF52EA43067FF4C5AE50EA41047FF45E
:10125C000DAF52EA43057FF4EBAE12E74FF0FF3CC3
:10126C0006E000BF4FF0010C02E000BF4FF0010C94
:10127C004DF804CD4FEA410C7FEA6C5C4FEA430C0D
:10128C0018BF7FEA6C5C1BD001B050EA410C0CBF5C
:10129C0052EA430C91EA030F02BF90EA020F0020BE
:1012AC00704710F1000F91EA030F58BF994208BF25
:1012BC0090422CBFD8176FEAE37040F001007047E2
:1012CC004FEA410C7FEA6C5C02D150EA013C07D139
:1012DC004FEA430C7FEA6C5CD6D152EA033CD3D084
:1012EC005DF8040B704700BF8446104662468C467E
:1012FC001946634600E000BF01B5FFF7B7FF0028B1
:10130C0048BF10F1000F01BD4DF808EDFFF7F4FFD9
:10131C000CBF012000205DF808FB00BF4DF808ED64
:10132C00FFF7EAFF34BF012000205DF808FB00BF87
:10133C004DF808EDFFF7E0FF94BF012000205DF8A9
:10134C0008FB00BF4DF808EDFFF7CEFF94BF01205E
:10135C0000205DF808FB00BF4DF808EDFFF7C4FF57
:10136C0034BF012000205DF808FB00BF4FEA410CA0
:10137C007FEA6C5C02D150EA013C0AD14FEA430C83
:10138C007FEA6C5C02D152EA033C02D14FF00000C0
:10139C0070474FF0010070474FEA410212F50012FE
:1013AC0015D211D56FF47873B3EB625212D94FEAA0
:1013BC00C12343F0004343EA505311F0004F23FA8A
:1013CC0002F018BF404270474FF00000704750EADF
:1013DC00013005D111F0004008BF6FF0004070479C
:1013EC004FF00000704700BF4A0011D212F50012F6
:1013FC0011D20DD56FF47873B3EB62520ED44FEA61
:10140C00C12343F0004343EA505323FA02F07047E0
:10141C004FF00000704750EA013002D14FF0FF301E
:10142C0070474FF0000070474FEA4102B2F1E043C1
:10143C0024BFB3F5001CDCF1FE5C0DD901F0004CAF
:10144C004FEAC0024CEA5070B2F1004F40EB8300FF
:10145C0008BF20F00100704711F0804F21D113F12B
:10146C003872BCBF01F00040704741F480114FEA64
:10147C005252C2F11802C2F1200C10FA0CF320FAED
:10148C0002F018BF40F001004FEAC1234FEAD3230A
:10149C0003FA0CFC40EA0C0023FA02F34FEA430374
:1014AC00CCE77FEA625307D150EA01331EBF4FF0FD
:1014BC00FE4040F44000704701F0004040F0FE4018
:1014CC0040F40000704700BF53B94AB9002908BF67
:1014DC0000281CBF4FF0FF314FF0FF3000F072B905
:1014EC00ADF1080C6DE904CE00F006F8DDF804E06F
:1014FC00DDE9022304B070472DE9F047089E04464D
:10150C008846002B4BD18A42154667D9B2FA82F233
:10151C004AB1C2F1200701FA02F320FA07F795400D
:10152C0047EA030894404FEA154E230CB8FBFEF72C
:10153C001FFA85FC0EFB178843EA084307FB0CF1E6
:10154C00994209D9EB1807F1FF3080F01B819942C1
:10155C0040F21881023F2B445B1AA4B2B3FBFEF09D
:10156C000EFB103344EA034400FB0CFCA44509D9E0
:10157C002C1900F1FF3380F00781A44540F204815F
:10158C0002382C4440EA0740A4EB0C0400271EB19F
:10159C00D4400023C6E900433946BDE8F0878B42AE
:1015AC0009D9002E00F0EB800027C6E9000138466F
:1015BC003946BDE8F087B3FA83F7002F47D18B4249
:1015CC0002D3824200F2FA80841A61EB03030120F9
:1015DC009846002EE0D0C6E90048DDE702B9FFDEF0
:1015EC00B2FA82F2002A40F08F80491B4FEA154E66
:1015FC001FFA85F80127B1FBFEFC230C0EFB1C1116
:10160C0043EA014308FB0CF1994207D9EB180CF1A2
:10161C00FF3002D2994200F2CD808446591AA3B20F
:10162C00B1FBFEF00EFB101443EA044408FB00F877
:10163C00A04507D92C1900F1FF3302D2A04500F2C6
:10164C00B6801846A4EB080440EA0C409FE7C7F1AB
:10165C00200CBB4022FA0CFE4EEA030E01FA07F4F2
:10166C0020FA0CF521FA0CF34FEA1E482543B3FB84
:10167C00F8F92C0C08FB19331FFA8EFA44EA0343D1
:10168C0009FB0AF49C4202FA07F200FA07F10BD9A3
:10169C001EEB030309F1FF3080F087809C4240F27F
:1016AC008480A9F1020973441B1BADB2B3FBF8F0A3
:1016BC0008FB103345EA034400FB0AFAA24508D99B
:1016CC001EEB040400F1FF336BD2A24569D902383A
:1016DC00744440EA0940A0FB0289A4EB0A044C457F
:1016EC00C2464B4654D351D0002E69D0B1EB0A05FB
:1016FC0064EB030404FA0CFCFD40FC404CEA0505C9
:10170C00C6E90054002747E7C2F1200320FA03F78B
:10171C00954001FA02F021FA03F34FEA154E3843D3
:10172C00010CB3FBFEF71FFA85F80EFB173341EAE9
:10173C00034107FB08F38B4204FA02F407D969183A
:10174C0007F1FF3C2FD28B422DD9023F2944CB1AF3
:10175C0081B2B3FBFEF00EFB103341EA034100FBF8
:10176C0008F38B4207D9691800F1FF3C17D28B4262
:10177C0015D902382944C91A40EA07473BE73746CE
:10178C00304609E70746E7E61846FBE64145ABD28B
:10179C00B8EB020A69EB0E0201381346A4E7604667
:1017AC00E9E7184695E76746D1E781467CE70238BA
:1017BC002C4447E7ACF1020C2B442FE7384608E7E2
:1017CC003746E9E6704700BF2DE900480749D1E9E3
:1017DC0000BC1BF101024CF10003C1E9002305F030
:1017EC004DFABDE8004805F06FBF00BF980C002013
:1017FC00014B9868704700BF10E000E0014B58683F
:10180C00704700BF10E000E0014B1868704700BF44
:10181C000421002010B54FF090420D4C936943F415
:10182C000073936123686FF001021A6103F0E4FE08
:10183C0023681B69DB0704D504F0C2FB054B0122AE
:10184C009A704FF09042936943F00073936110BD0E
:10185C0008230020C423002010B51B4C1B4882B069
:10186C0008F056F9D4F8B820D4F8BC30D4F8C0102D
:10187C00009104F108010191154804F1980108F058
:10188C0047F904F12801134808F042F904F18802E1
:10189C0004F17801104808F03BF904F1580204F106
:1018AC0048010E4808F034F90D490E4808F030F99B
:1018BC000D490E4808F02CF90D481E22042102B0E7
:1018CC00BDE8104008F024B988410008287A0108C6
:1018DC004C7A0108607A01086C7A01087C7A01085C
:1018EC008C7A0108D07A0108E07A0108E87A0108BC
:1018FC00F87A0108074B084A1A65BFF34F8F07495E
:10190C00074BCA6802F4E0621343CB60BFF34F8FFE
:10191C0000BFFDE700280040EFBEADDE00ED00E0AB
:10192C000400FA0505F096BE08B501224FF480714B
:10193C004FF0904006F0BEF9F7E700BF30B59FB00E
:10194C0001234FF48032002502244FF4E01105A846
:10195C00059309930B9306920D9207950C940E9197
:10196C0006F0F0FA002836D103460F254FF48062BA
:10197C0021466846CDE9014304930095039206F095
:10198C00A3FD40BB4FF4007311904FF480244FF42F
:10199C0080714FF400521D90104D13940FA80F95A9
:1019AC00CDE918121C93109306F0EEFE044690B984
:1019BC0006F0B4FE0A4BA3FB0030800905F05CFE78
:1019CC00042005F073FE224621464FF0FF3005F04F
:1019DC00FFFD1FB030BDFFF7A7FF00BF852103003F
:1019EC00D34D621000B5554B554A9A608DB005F039
:1019FC0033F9FFF7A3FF06F091FE524B524C1860DF
:101A0C00636943F400336361636903F40033009347
:101A1C00009B636943F480236361636903F480234F
:101A2C000193019B636943F400236361636903F4CD
:101A3C0000230293029B636943F48003636163692F
:101A4C0003F480030393039B00F0B0FD00F068FAED
:101A5C0000F0D6FA00F044FB00F0B2FB00F0A4FC5E
:101A6C003A483B493B4A40F6414341F24105056047
:101A7C000B60136000F0D8FC00F0F2FC00F00CFDE1
:101A8C00636943F001036361636903F00103049329
:101A9C00049B636943F002036361636903F002030F
:101AAC000593059B4FF4004292FAA2F22A4B2B4865
:101ABC00B2FA82F213449B0001251D60002105F04F
:101ACC0047FB0021264805F043FB0021254805F083
:101ADC003FFB0021244805F03BFB244806F07EF92F
:101AEC00234806F07BF9234806F078F9224B234A69
:101AFC001A60626942F040026261626902F040025F
:101B0C0006920022032118469A80069C1962C3E9AA
:101B1C00052205F021FE78B903464FF4C0624FF060
:101B2C00904007A9CDE908530A93079205F050FF9E
:101B3C000E4806F039F918B3FFF7F6FE00ED00E099
:101B4C000040000804210020001002401C0001404D
:101B5C002000014028000140008190105C210020F1
:101B6C0008210020B021002004220020D4220020D3
:101B7C006C220020A0220020E02000200030024037
:101B8C00974806F011F90028D6D1964806F00CF9C2
:101B9C0004460028D0D1944E944833685C639C630F
:101BAC00DC6305F00DFA924805F00AFA914805F04D
:101BBC0007FA914805F004FA2146904805F0B4FE66
:101BCC002346224621468D4805F096FE304606F007
:101BDC0085FF0028B0D18A4B01461D63304607F0C3
:101BEC001BF80028A8D10421304607F015F800286E
:101BFC00A2D10821304607F00FF8014600289BD1EE
:101C0C00304607F005FA002896D13046042107F03B
:101C1C00FFF9002890D10821304607F0F9F9002887
:101C2C008AD1DFED780A9FED780A04F00BFA774839
:101C3C0004F014FE764804F011FE764804F00EFE13
:101C4C00754804F00BFE754804F008FE744804F067
:101C5C0005FE744804F002FE734804F0FFFD73485F
:101C6C0004F0FCFD724804F0F9FD724804F0F6FD36
:101C7C00714804F0F3FD714804F0F0FD704804F075
:101C8C00EDFD704804F0EAFD6F4804F0E7FD6F4885
:101C9C0004F0E4FD6E4804F0E1FD6E4804F0DEFD56
:101CAC006D4804F0DBFD6D4804F0D8FD6C4804F081
:101CBC00D5FD6C4804F0D2FD6B4804F0CFFD6B48A9
:101CCC0004F0CCFD6A4804F0C9FD6A4804F0C6FD76
:101CDC00694804F0C3FD694804F0C0FD684804F08D
:101CEC00BDFD684804F0BAFD674804F0B7FD6748CD
:101CFC0004F0B4FD664804F0B1FD664804F0AEFD96
:101D0C00654804F0ABFD654804F0A8FD644804F098
:101D1C00A5FD644804F0A2FD634804F09FFD6348F0
:101D2C0004F09CFD624804F099FD624804F096FDB5
:101D3C00614804F093FD614804F090FD604804F0A4
:101D4C008DFD604804F08AFD5F4804F087FD5F4814
:101D5C0004F084FD5E4804F081FD5E4804F07EFDD5
:101D6C005D4804F07BFD5D4804F078FD5C4804F0B0
:101D7C0075FD5C4804F072FD5B4804F06FFD5B4838
:101D8C0004F06CFD5A4804F069FD5A4804F066FDF5
:101D9C00594804F063FD594804F060FD584804F0BC
:101DAC005DFD584804F05AFD574804F057FD57485C
:101DBC0004F054FD564804F051FD564804F04EFD15
:101DCC00554804F04BFD554804F048FD03F058FF0E
:101DDC0003F0BAFC00F0E8FC012004F05DFFF7E72B
:101DEC006C220020A0220020082300205C2100206F
:101DFC0008210020B02100200422002058220020BD
:101E0C00003401400000000065CF8B380C7B0108CA
:101E1C001C7B0108287B0108307B0108387B0108FA
:101E2C00407B01084C7B0108587B0108607B010852
:101E3C006C7B0108807B0108947B0108A87B01085E
:101E4C00C07B0108D47B0108E87B0108FC7B0108FE
:101E5C00147C0108307C0108487C0108647C010872
:101E6C00807C0108947C0108B07C0108CC7C0108C2
:101E7C00E07C0108FC7C0108107D01082C7D010828
:101E8C00407D0108547D0108687D0108787D0108BA
:101E9C00887D0108987D0108A87D0108B87D01089E
:101EAC00C87D0108D87D0108E87D0108F87D01088E
:101EBC000C7E0108247E01083C7E0108507E01083E
:101ECC00647E0108747E0108887E01089C7E0108EE
:101EDC00B07E0108C47E0108D87E0108EC7E0108A2
:101EEC00007F0108147F0108287F0108407F01084A
:101EFC00587F0108707F0108887F0108A47F0108C2
:101F0C00C47F0108E47F0108FC7F010810800108F0
:101F1C00308001084480010870800108808001082D
:101F2C0030B5364B4FF0A0404FF480624FF4E07167
:101F3C0087B00625042418601A63D9620022012197
:101F4C0018461D625C61C3E90122DA615A62DA60EB
:101F5C005A639A619A631961996204F0AFFE002882
:101F6C0048D1032000230124042200906946234811
:101F7C000194CDE903330593029205F061F9002831
:101F8C0035D1022369461D48019305F059F958BB18
:101F9C00032369461948019305F052F908BB042341
:101FAC0069461648019305F04BF9B8B90523694603
:101FBC001248019305F044F968B9062304226946D6
:101FCC000E480293CDE9002305F03AF908B1FFF76A
:101FDC00ABFC07B030BDFFF7A7FCEEE7FFF7A4FCA6
:101FEC00E4E7FFF7A1FCDAE7FFF79EFCD0E7FFF789
:101FFC009BFCC6E7FFF798FCB3E700BF5C21002011
:10200C0030B5354B354A1A604FF4E0714FF48062AD
:10201C0087B0062504241A63D962002201211846D0
:10202C001D625C61C3E90122DA615A62DA605A63AB
:10203C009A619A631961996204F040FE002848D1B4
:10204C0003200023012404220090694622480194B5
:10205C00CDE903330593029205F0F2F8002835D14F
:10206C00022369461C48019305F0EAF858BB032388
:10207C0069461948019305F0E3F808BB0423694647
:10208C001548019305F0DCF8B8B9052369461248E8
:10209C00019305F0D5F868B90623022269460E486B
:1020AC000293CDE9002305F0CBF808B1FFF73CFC17
:1020BC0007B030BDFFF738FCEEE7FFF735FCE4E77F
:1020CC00FFF732FCDAE7FFF72FFCD0E7FFF72CFC29
:1020DC00C6E7FFF729FCB3E70821002000010050F8
:1020EC0030B5354B354A1A604FF4E0714FF48062CD
:1020FC0087B0062504241A63D962002201211846F0
:10210C001D625C61C3E90122DA615A62DA605A63CA
:10211C009A619A631961996204F0D0FD002847D145
:10212C00002301220424694623480593CDE90022AB
:10213C00CDE90333029405F083F8002835D102234E
:10214C0069461D48019305F07BF858BB032369468B
:10215C001948019305F074F808BB04236946164826
:10216C00019305F06DF8B8B905236946124801933F
:10217C0005F066F868B90623052269460E480293F5
:10218C00CDE9002305F05CF808B1FFF7CDFB07B0F3
:10219C0030BDFFF7C9FBEEE7FFF7C6FBE4E7FFF73F
:1021AC00C3FBDAE7FFF7C0FBD0E7FFF7BDFBC6E7E1
:1021BC00FFF7BAFBB4E700BFB021002000040050C9
:1021CC0030B5364B364A1A604FF4E0714FF48062EA
:1021DC0087B0062504241A63D9620022012118460F
:1021EC001D625C61C3E90122DA615A62DA605A63EA
:1021FC009A619A631961996204F060FD002849D1D3
:10220C00042200230124694624480092CDE90142AE
:10221C00CDE90333059305F013F8002837D10223D9
:10222C0069461E48019305F00BF868BB0323694609
:10223C001A48019305F004F818BB052204236946DB
:10224C001648CDE9002304F0FBFFB8B90523694615
:10225C001248019304F0F4FF68B90623032269467F
:10226C000E480293CDE9002304F0EAFF08B1FFF712
:10227C005BFB07B030BDFFF757FBEEE7FFF754FBF6
:10228C00E4E7FFF751FBD8E7FFF74EFBCEE7FFF78C
:10229C004BFBC4E7FFF748FBB2E700BF042200206A
:1022AC000005005010B50368B3F1A04F8AB01DD0E3
:1022BC00364A934207D0364A934236D0354A934237
:1022CC0050D00AB010BD344A13680133012B13608F
:1022DC0020D0E0240322002305A94FF09040CDE943
:1022EC000542079305F074FB0AB010BD2A4A136827
:1022FC000133012B136001D00E24EBE7274B5A69F5
:10230C0042F080525A615B6903F080530193019B48
:10231C000E24DFE7214B5A6942F080525A615B6907
:10232C0003F080530293029BD3E71D4A13680133D9
:10233C00012B136009D1194B5A6942F000525A61B2
:10234C005B6903F000530393039B164842F20304AA
:10235C000322002305A9CDE90542079305F038FBBC
:10236C000AB010BD0E4A13680133012B136009D15A
:10237C000A4B5A6942F000525A615B6903F00053F0
:10238C000493049B07484FF45044E1E700010050CC
:10239C000004005000050050A00C0020001002406A
:1023AC00A40C00200004004800B50C480C4B036042
:1023BC0085B005F08BFA68B900231A4601A90748C5
:1023CC00CDE9013305F0DCFA08B1FFF7ADFA05B041
:1023DC005DF804FBFFF7A8FAEEE700BF58220020D7
:1023EC000074004002680F4B9A4200D0704730B521
:1023FC0003F5CE3387B0DA6942F00052DA61DB695B
:10240C0003F00053009303220023102401A94FF082
:10241C009040009D0393CDE9014205F0D9FA07B035
:10242C0030BD00BF0074004038B50B4B0B4A1A602E
:10243C00402500220C244FF4404118465D60DC60BE
:10244C0019621A61DA615A6205F03AFC00B938BDBA
:10245C00BDE83840FFF768BAD422002038000140AC
:10246C0038B50B4B0B4A1A60402500220C244FF454
:10247C00404118465D60DC6019621A61DA615A628B
:10248C0005F01EFC00B938BDBDE83840FFF74CBA6A
:10249C006C2200203C00014038B50B4B0B4A1A60F3
:1024AC00402500220C244FF4404118465D60DC604E
:1024BC0019621A61DA615A6205F002FC00B938BD82
:1024CC00BDE83840FFF730BAA022002040000140A0
:1024DC0010B5134A0368934286B007D0114A934251
:1024EC001CD0114A93420ED006B010BD0624032214
:1024FC00002301A94FF09040CDE90142039305F070
:10250C0067FA06B010BD0323002201A90748039205
:10251C00CDE9013305F05CFA06B010BDC024E6E746
:10252C00380001403C0001404000014000040048DC
:10253C0000B51D4B9A6942F001029A619B6983B008
:10254C0003F0010301930320019B05F02FF80022F7
:10255C0011466FF00B0005F03BF8002211466FF0AE
:10256C000A0005F035F8002211466FF0090005F05D
:10257C002FF8002211466FF0040005F029F8002214
:10258C0011466FF0030005F023F8002211466FF09E
:10259C00010005F01DF800220E214FF0FF3003B0B2
:1025AC005DF804EB05F014B80010024070B55B4CFC
:1025BC005B4B23609EB0002360214FF49652204663
:1025CC00C4E902126360C4E9043306F0F9F9002887
:1025DC0057D11EA94FF4805341F86C3D4F4806F07B
:1025EC004BFB002840F096804C4806F087FA0028F8
:1025FC0040F08D8000232022694648480293CDE9A3
:10260C00002306F021FE00287ED1002360251A4607
:10261C000CA942480C95CDE90D33CDE90F33CDE92A
:10262C00113306F00FFD00286BD104220CA93B4896
:10263C0006F008FD002861D10CA90822374806F0E5
:10264C0001FD002857D14FF4805000234FF4005661
:10265C000A254FF00072179013A930481A93CDE950
:10266C001333CDE91533CDE91C33CDE918651B9235
:10267C0006F018FE40B92268294B9A420AD01EB0C7
:10268C0070BDFFF751F9A4E7FFF74EF92268244B10
:10269C009A42F4D10024022507A9182204232148C8
:1026AC000792CDE90A43CDE9085405F091F907A941
:1026BC00202203231B4807920B93CDE908540A945C
:1026CC0005F086F907A940220523164807920B93BB
:1026DC00CDE908540A9405F07BF94FF440720A23B3
:1026EC0007A910480A94CDE9085407920B9305F0FA
:1026FC006FF91EB070BDFFF717F9A4E7FFF714F9D7
:10270C009AE7FFF711F990E7FFF70EF97DE7FFF76E
:10271C000BF96FE7FFF708F966E700BF0823002005
:10272C00003401400004004802680E4B9A4200D06D
:10273C00704700B503F55C4383B09A6942F40052CC
:10274C009A619B69002203F40053019311462C20DB
:10275C00019B04F03DFF2C2003B05DF804EB04F06A
:10276C006DBF00BF00340140012004F095B800BFDC
:10277C00002004F091B800BF022004F08DB800BF17
:10278C00032004F089B800BF042004F085B800BF12
:10279C00704700BF704700BF0A460146014802F06F
:1027AC000DB800BF10000020704700BF012070471B
:1027BC000A460146014802F02BB800BF0000002079
:1027CC00014801F0FBBF00BF10000020486B094A14
:1027DC004FF07E5310B40360CC6B074823604C6CF5
:1027EC002360CB6C1A604B6D1A60CB6D18605DF872
:1027FC00044B7047ACC5A7360000964570B4CB6D42
:10280C00DFED707A93ED007AB4EEE77AF1EE10FA20
:10281C0012D893ED007ADFED6C7AB4EEE77AF1EE34
:10282C0010FAC0F2CA80D3ED007AFDEEE77A17EE0B
:10283C00902A17EE903A02E04FF4A5531A46634CD7
:10284C000260E362CB6ADFED626AD3ED007AF4EEEC
:10285C00E67AF1EE10FAC8BFD3ED006A4B69D3EDFE
:10286C00007AF4EEE67AF1EE10FA00F2A380D3EDE2
:10287C00007AF5EEC07AF1EE10FAACBF93ED007A67
:10288C009FED547AC7EE267A0568CA6907EE105A8E
:10289C00B8EEC77A92ED006A67EE277AB4EEE66A74
:1028AC00FDEEE77AF1EE10FA17EE903A7FD8D2ED02
:1028BC00007AF5EEC07AF1EE10FAACBF92ED006A38
:1028CC009FED446AC6EE267A67EE877A4A6A92EDE5
:1028DC00006AFDEEE77AB4EEE66AF1EE10FA17EE56
:1028EC00904A5CD8D2ED007AF5EEC07AF1EE10FA8F
:1028FC00ACBFD2ED007ADFED377A87EEA66A26EE12
:10290C00076ACE6CDFED346AD6ED007A4A6D27EE9D
:10291C00267AF6EE006AB0EE665AD2ED005AA7EEB1
:10292C00275A002BE7EE256AFDEEC57A17EE901AB2
:10293C00FDEEE67A17EE902AFDEEC67A17EE906A57
:10294C0024DD8B4222DA0B440C440E44A91A994222
:10295C0001DBA14226DA9B1A9942A4EB0204A6EBF6
:10296C00020621DA194BD963036818499B1AA34252
:10297C00A8BF24EAE4738B6303689A1AB242134B20
:10298C00A8BF26EAE6725A6370BC7047002C01DDC2
:10299C008C42D8DB002ED9DD8E42D7DAD3E7B0EEED
:1029AC00476AAEE7B142D6DB23EAE371DAE7F0EE31
:1029BC00477A8BE7F7EE007A66E74FF487531A46AF
:1029CC003DE700BF0000A5450000874500340140ED
:1029DC00CDCCCC3D0000000000606A462DE9F043F0
:1029EC00D1F8BC3000221A60D1F8C43087B04FF057
:1029FC007E58C3F8008000254FF4807304260F46E0
:102A0C00044601A94FF090404FF00109CDE901397E
:102A1C00CDE9035504F0DCFF0DEB06013D480295B2
:102A2C000495019604F0D4FF31463A4805F03CF980
:102A3C0070B13146374805F0A3F80DEB0601354867
:102A4C00CDE9029504F0C4FFD7F8BC30C3F8008080
:102A5C00314ADFF8D0C01168DFF8CCE02F4B4FF6CD
:102A6C00FE76314011600625C2F808C04FF4D550EF
:102A7C004FF0A04CC2F80CE055601060DCF80C1064
:102A8C00DFF8A8E041F00301CCF80C101168DFF876
:102A9C00A0C041F0010111601A68214932401A604E
:102AAC00C3F808E0C3F80CC05D601860CA6842F057
:102ABC000302CA601A680026002542F001024FF496
:102ACC00004E4FF0010C01A94FF090401A602660A7
:102ADC006660A660E66026616661A661E561A56236
:102AEC00C4E90855E562CDF804E0CDF808C0CDE99D
:102AFC00035504F06DFF802301A906480193CDE92D
:102B0C00025504F065FFD7F884301E6007B0BDE8AD
:102B1C00F08300BF00040048080002405804024043
:102B2C00000400500C030050482300200C070050F8
:102B3C00602300202DE9F04F7B4A83B005460C46FC
:102B4C0013689807FCD5794A13689903FCD5764E1F
:102B5C007748784902274FF4003377605360EE6969
:102B6C00D0F800B043680093D0F80890D0F80CE08F
:102B7C0007690A68D1F804A0D1F80880D1F80CC014
:102B8C000B690193632E41D80136EE61D4F8843081
:102B9C00D3ED007AFCEEE77A17EE902AB2F5805F5F
:102BAC0080F0A5801A68D3ED007AFCEEE77A17EE78
:102BBC00903A6149614A8B601068DFED707AD4F805
:102BCC008C105F4BB7EE007A10F0804F14BFF0EE14
:102BDC00476AF0EE676AC1ED006A5168D4F8942038
:102BEC0011F0804F14BFF0EE476AF0EE676AC2ED49
:102BFC00006A1A68D4F89C3012F0804F18BFF0EEBF
:102C0C00477AC3ED007A03B0BDE8F08F009B95EDD9
:102C1C00005A5B444B4452449E449044019BC44430
:102C2C00C72E77449C4465D81FFA8CFCBBB207EEC8
:102C3C0090CA06EE903A3F0CF8EEE77A07EE107A5F
:102C4C00F1EE044AF8EEE66AC7EEA45A0136EE61DC
:102C5C00B8EEC77A86EEA46AC7EE246A9FED3A7A7C
:102C6C00DFED3A1ADFED377A9FED3B2ADFED392A9B
:102C7C009FED3A3ADFED3E3A95ED014AD5ED024A29
:102C8C0065EE875A26EE076A65EEA15A26EE877A1C
:102C9C0066EE216AB0EE676AA5EE826A27EE217AAB
:102CAC00F0EE675AE6EE825AE7EE027AF0EE656ACB
:102CBC0086EEA27AC6EE225A87EEA26A65EE835A97
:102CCC0067EE037A26EE036A87EEA37AC5EEA36A53
:102CDC00C6EE237A74EE266A34EE877A37EE855A7E
:102CEC00C5ED016A85ED027A85ED005A4EE740F696
:102CFC00FF735EE7C82E45D1B0EEC55AF1EE047AEB
:102D0C00B4EEE75AF1EE10FA09DC95ED017AB0EE6B
:102D1C00C77AB4EEE77AF1EE10FA40F3D9810D23BD
:102D2C00AB62C923EB6131E70000024000040240B2
:102D3C004823002060230020007400401C00014048
:102D4C0028000140A6B1CFBDCBA155400000803971
:102D5C00A6B1CF3D000034420000803D00B8714662
:102D6C0000C07345CDCC4C3D8011F5483333733FD7
:102D7C000000C8420000CD430000E4410000000008
:102D8C006F12833ABBB207EE903AF8EEE77AF1EEA7
:102D9C00042A3F0C87EEA24A1FFA8CFCE36E07EE66
:102DAC00907AB8EEE77A07EE90CAC7EE224AF8EEB0
:102DBC00E77A5FED1B6A83ED005AC7EEA25A636F88
:102DCC006A681A60E36FAA681A60E36A1FED216AE9
:102DDC001FED217A5FED203A1FED223A24EE265AA0
:102DEC0064EEA67A26EE455AF0EE474AE5EE234A03
:102DFC0066EE677AC4EE831AB0EE475AA7EEA35A72
:102E0C0065EEA67A85EE032A66EE677A5FED2D5A9B
:102E1C005FED2D4A1FED2C4A1FED2E5AA7EEA37A1B
:102E2C00D5ED027A5FED2F3AC7EE032AE1EEA57AD3
:102E3C00C3ED007AD5ED007AE369E2EE257AC3EDB5
:102E4C00007AD5ED017A636AE2EEA57AC3ED007AD9
:102E5C004369E26C9BB207EE103AB8EEC77AD2ED3A
:102E6C00005A27EE067A65EEA35A27EE267AC7EEAD
:102E7C00247A67EE847AE7EE855AC2ED005A4369EC
:102E8C00626C1B0C07EE103AB8EEC77AD2ED005A02
:102E9C0027EE067A65EEA35A27EE267AC7EE247A39
:102EAC0067EE847AE7EE855AC2ED005A4B69E26B05
:102EBC009BB207EE103AB8EEC77AD2ED005A27EE65
:102ECC00067A65EEA35A27EE267AC7EE247A67EEC9
:102EDC00847AE7EE855AC2ED005A4B69626D1B0C81
:102EEC0007EE903AF8EEE77A92ED007A67EE867A82
:102EFC0027EE237A67EEA67AC7EEA46AF0EE477A3D
:102F0C0026EE844AE4EE057AC2ED007AE369606A43
:102F1C00D3ED007AE26AF5EEC07AD3ED007AD0ED0B
:102F2C00006A92ED007AF1EE10FAF4EEC76A48BF2F
:102F3C00F1EE677AF1EE10FACCBF90ED007A92EDDB
:102F4C00007AF4EEC77AF1EE10FA40F3B380D3EDC9
:102F5C00007AF5EEC07AF1EE10FAD3ED007A00F1BA
:102F6C00C280636B1FED7E7AC3ED007A0B682B6217
:102F7C00CB686B62E36D5FED7F7AD3ED006A5FED3A
:102F8C00800AF4EEC76AF1EE10FAB7EE001AD8BF59
:102F9C00B0EE671A05F10C00B1EE040A01F0FAFC70
:102FAC00B5EE400AF1EE10FA1CBF0A23AB62636D5A
:102FBC001FED907AD3ED006A5FED907A5FED900A89
:102FCC00F4EEC76AF1EE10FAB7EE001AD8BFB0EE05
:102FDC00671A05F11000B1EE040A01F0DBFCB5EE46
:102FEC00400AF1EE10FA1CBF0B23AB62636B1FEDB2
:102FFC009E7AD3ED006A5FED9F7A5FED9F0AF4EE47
:10300C00C76AF1EE10FAB7EE001AD8BFB0EE671A25
:10301C00B1EE040A05F1140001F0BCFCB5EE400A57
:10302C00F1EE10FA1CBF0E23AB62636B93ED007ACA
:10303C00F3EE0E7AB4EEE77AF1EE10FA35DCD5ED5C
:10304C000A7AF8EE677AD4F8AC30C3ED007AD4F88B
:10305C00A430D3ED007AF5EEC07AF1EE10FA5EDD15
:10306C00EB6A002B4CD0AB6A002B3FD1D4F8B430B8
:10307C00D3ED007AF5EEC07AF1EE10FA59D93B4B4C
:10308C005B6C1B0401D41023AB62D4F8C4303848F9
:10309C00D3ED007AF5EEC07AF1EE10FACCBF002237
:1030AC000122042104F006FE70E50F23AB62F2EE60
:1030BC000E7AC8E790ED007AD2ED007AB4EEE77A9A
:1030CC00F1EE10FACCBFD0ED007AD2ED007A48E7E1
:1030DC0095ED027AB0EEC77AB4EEE77AF1EE10FA1B
:1030EC007FF71FAE1BE6F1EE677A3AE7002300226A
:1030FC00AB614FF400414FF0904004F0DBFDC4E7AE
:10310C001A4A536C43F4004353644FF400410122B8
:10311C004FF0904004F0CEFD0123EB62A3E70022B8
:10312C00C5E90A224FF400414FF0904004F0C2FD73
:10313C00ABE780210E4804F0B7FD9FED0E1ADFEDD2
:10314C000E0A0028F7EE007A08BFB0EE671A05F1F8
:10315C001800B1EE040A01F01DFCB5EE400AF1EEC8
:10316C0010FA1CBF0C23AB6289E700BF003401408E
:10317C0000040048000000000AD7233CF0B57F4B48
:10318C004A69D2ED007A9B78072B8DB00E46074624
:10319C0000F0D88006247A497A4D4FF496720023B9
:1031AC00D1E90001FEF790F922460023FEF78CF9D5
:1031BC00012ACCBF02F0010200224FF480714FF0C3
:1031CC00904004F077FD7B8CDFED6F6ADFED6F5A7A
:1031DC009FED6F6A07EE903AFAEECA7AB7EE005A94
:1031EC0067EEA67A0FCD86EEA77A6C460FC40FCD8C
:1031FC000FC477EE457A95E80F00C5EEA76A84E810
:10320C000F00DDED017A86EE867AB4EEE77AF1EE08
:10321C0010FA00F39E80DDED027AB4EEE77AF1EE5F
:10322C0010FA00F39A80DDED037AB4EEE77AF1EE52
:10323C0010FA00F39480DDED047AB4EEE77AF1EE47
:10324C0010FA00F38E80DDED057AB4EEE77AF1EE3C
:10325C0010FA00F38880DDED067AB4EEE77AF1EE31
:10326C0010FA00F38280DDED077AB4EEE77AF1EE26
:10327C0010FA7EDCDDED087AB4EEE77AF1EE10FAA6
:10328C0079DCDDED097AB4EEE77AF1EE10FA6EDC5A
:10329C00DDED0A7AB4EEE77AF1EE10FA33DCDDED0F
:1032AC000B7AB4EEE77AF1EE10FAC8BF0B222BDCE6
:1032BC00DFED387AF36DDFED386AD3ED004A9FED20
:1032CC00325A9FED366A9FED317ADFED355AE4EED6
:1032DC00A67AF7EE006AC3ED007AFB8C07EE903A03
:1032EC00FAEECA7A736E67EE857A67EE867A87EEA7
:1032FC00876AC5EE867A77EEE67AC7EE276AC3ED63
:10330C00006A0DB0F0BD0A2202EB82035B0006EEF0
:10331C00903AF8EEE66A013A0CAB03EB820212ED3E
:10332C000C6ADFED205A37EEC77A36EE676AF2EE9A
:10333C00047A87EE065AE5EE276A76EEE77A67EEB0
:10334C00A57AB7E7FCEEE77A17EE904A01346400F1
:10335C0021E7F2EE046A0022DEE70222D4E7032220
:10336C00D2E70422D0E70522CEE70622CCE70922D9
:10337C00CAE70722C8E70822C6E700BFC42300201B
:10338C00980C0020F8790108CBA1554000401C4650
:10339C0000007A44D21D043EA4707D3F00486E4765
:1033AC00F62874410AD7233CBFF34F8F0549064BCF
:1033BC00CA6802F4E0621343CB60BFF34F8F00BFC7
:1033CC00FDE700BF00ED00E00400FA050023C0E9B2
:1033DC0000330372D1F8042100231360D1F80C21BF
:1033EC001360D1F814211360D1F824211360D1F8A3
:1033FC0044314FF081421A60D1F84C31034A1A60C3
:10340C00D1F854314FF07E521A6070470000A04042
:10341C002DE9F043444F454EFB69454C43F4802362
:10342C00FB61A5B0FB6908940025CDE90965CDE9E0
:10343C000B55CDE910550C214FF4004203F48023B9
:10344C0001930D910F920E95019BA36843F4865343
:10345C000646A36008A805F0CDFF4FF440604FF07E
:10346C00010802224FF00309072303A903903148F6
:10347C00CDE90428CDE9069304F0AAFA7A692E4B1B
:10348C002E482F4942EA08027A617A6902EA080258
:10349C000292029A1A684FF6FE773A401A6006F1C9
:1034AC0029029860DA601820902258601A60702007
:1034BC00244A4860136824483B40136006F1090C09
:1034CC009060202780204FF4E063C2F80CC0576056
:1034DC0010604B6011681D4B4FF0000C604641EAC8
:1034EC000801586011601022C3F800C06261986036
:1034FC00D860186158619861D86118625862636825
:10350C0043F400036360236A43F40063236286F888
:10351C002E9096F8303068F3030386F8303086F836
:10352C002D5025B0BDE8F08300100240C0C62D0020
:10353C0000480040000400481C000240284800409D
:10354C000000024030000240244800409C23002030
:10355C00F0B52DED028BCC4B9FEDCC7A5E68D1F89B
:10356C003431C6F1200607EE906AF8EE677A85B022
:10357C00C3ED007AD1F83C3183ED007AD1F85431A7
:10358C00D3ED006AF4EEE67AF1EE10FA0C4605463D
:10359C000BDD93ED006ADFEDBE6A76EEC66AF4EEE3
:1035AC00E67AF1EE10FA00F10481202E00F03A8157
:1035BC002B68052B09D8636AE26A93ED007AD2ED89
:1035CC00006AA6EE807A83ED007AB24BDA691205B6
:1035DC007AD49FEDB18A2A7A022A00F02081012A3E
:1035EC0040F0A380002E00F0A08002232B72D4F8B0
:1035FC00E410AA4B0968D4F8EC0019600168D4F8FF
:10360C00F47059603968D4F8B46099603168D4F8B2
:10361C00BC00D9600168D4F8C47019613968D4F859
:10362C00DC6059613168D4F89C0019620068D4F8E8
:10363C00FC7098613868D4F8CC60D861D6ED007A0B
:10364C009749FCEEE77ACDED017A9DF8040085F8F8
:10365C003D00D4F8A4006E680068C5F83500D4F8B5
:10366C00AC000768C5F83970701CA1FB00C1490893
:10367C00F7B2686085F82F7001EBC101411A53F85D
:10368C002630C5F831306960864803A901F060F82E
:10369C00002800F03C819DF80C3085F83E30052266
:1036AC0005F12D01804804F09BF8804BC5F82900EA
:1036BC001A684FF6FE710A4018211A6059601A6890
:1036CC0042F001021A6030E01A6A9FED738A42F4EC
:1036DC0000624FF0904142F00A021A628B6943F487
:1036EC0080638B61D4F8243193ED007AF7EE006A95
:1036FC0037EE267A83ED007AD4F81C31C3ED007ACC
:10370C00614B1A684FF6FE710A4020211A6059600D
:10371C001A684FF0904142F001021A608B6943F035
:10372C0080638B612B7A022B79D02B68052B0FD9F8
:10373C00626B00231360E26A1360D4F81431D3ED8A
:10374C00007AB7EE008A77EE887AC3ED007A2B68A0
:10375C0001332B60D4F8CC30D3ED007AF4EEC87A78
:10376C00F1EE10FA58BF93ED008AD4F82C3183EDAA
:10377C00008A636CD3ED007AFCEEE77A17EE903A90
:10378C009BB2042B00F29A80DFE803F03003440371
:10379C000300D4F89C309FED467AD3ED007AD4F830
:1037AC00FC3067EE877AC3ED007A05B0BDEC028B76
:1037BC00F0BDD1F84431D3ED006AF4EEE67AF1EEC7
:1037CC0010FA00F38380D3ED006AF4EEE67AF1EEA2
:1037DC0010FA7FF5EAAED1F84C21D1F83C31D2ED9C
:1037EC00006A36EE877A83ED007ADEE6D4F89C30F8
:1037FC00DFED306A93ED006A9FED2D7AD4F8FC3042
:10380C00C6EE267A67EE877AC3ED007A05B0BDEC7A
:10381C00028BF0BDD4F89C30DFED276AEAE7002379
:10382C002B7282E7072205F10D011F4803F0D8FF28
:10383C006B7B002B55D0D4F80431D3ED007AB7EE66
:10384C00007A77EE877AB0EE088AC3ED007A114AD7
:10385C00D3691B057FF5BFAE136A43F4006343F0D5
:10386C000A034FF0904113628B6943F480638B61C0
:10387C00D4F82431D3ED007AB7EE007A77EE877A5C
:10388C00C3ED007A3CE700BF3000024000009645D3
:10389C000000004200480040000000007823002097
:1038AC00398EE33810000020E02000201C0002407C
:1038BC003333733FF304B53FD7B3DD3FD4F8FC305B
:1038CC0000221A6005B0BDEC028BF0BDD1F84C2182
:1038DC00D1F83C31D2ED006A37EE667A83ED007A8E
:1038EC0063E6AB7B052BA6D1D5F809308342A2D178
:1038FC00EA7B2B7C03F00F030A2A03F1FF3328BF6A
:10390C000A22032B07D8DFE803F07F058B8885F8A4
:10391C003E00C4E66A60434F6B6A626BC3F30043BC
:10392C0007EE903AF8EE677AC2ED007A95F82630F9
:10393C00626CC3F3820307EE903AF8EE677AC2ED3D
:10394C00007A95F82630E26BC3F3400307EE903A09
:10395C00F8EE677AC2ED007A6B6AD4F8D420C3F320
:10396C00405307EE903AF8EE677AC2ED007A63693D
:10397C00D5F815201A60E369D5F819201A60636A26
:10398C00D5F81D201A60E36AD5F821201A6095F845
:10399C0025302BB1012205F12501234800F00EFF43
:1039AC00E36C3A681A60636D7A681A60E36DBA6802
:1039BC001A60636EFA681A60E36E3A691A60636F94
:1039CC007A691A60E36FBA691A60D4F88430FA69BC
:1039DC001A60D4F88C303A6A1A60D4F89420796A58
:1039EC00116000232B60D4F80C31D3ED007AB7EEC4
:1039FC00007A77EE877AC3ED007A2B7A53B90123DC
:103A0C002B729FED0A8A22E7064FD5F8113047F842
:103A1C00223081E79FED058A19E7054B054A1A65A7
:103A2C00FFF7C2FC9C2300200000002000000000D7
:103A3C0000280040EFBEADDE4B6905481860CB692D
:103A4C00044A4FF07E5018604B6E1A60704700BFEE
:103A5C00666646400050C34730B52DED068B9FED92
:103A6C006D6A4B6990ED017AD3ED005ADFED6A6A0D
:103A7C00D0ED027A27EE067A67EE867AA5EEA67A64
:103A8C0083B00D46B7EE008A80ED017ACB6993EDD9
:103A9C00007AE7EE267A0446B0EE40AAC0ED027A30
:103AAC004B6E93ED007AB4EEC87A9FED5C7AF0EE33
:103ABC00E76AF1EE10FAF4EEC76AC8BF93ED008A1C
:103ACC00F1EE10FA40F3A3809FED556A37EEA77A1A
:103ADC0027EE067AB7EE006AC6EE079A94ED007AE6
:103AEC003AEE077AB7EE006A27EE870A84ED007A81
:103AFC00F0EEC05AF4EEC65AF1EE10FA0CDBF5EE0D
:103B0C00C06AF1EE10FA07DDC6EE265A37EE657A7A
:103B1C0027EE870A84ED007ADFED41AA30EE000A29
:103B2C00694601A8002320EE2A0A0093019300F0B5
:103B3C00ADFED4ED027A94ED030AEB6E9DED017AA5
:103B4C0094ED019AD3ED008A77EEA77A29EE079AC5
:103B5C0067EEAA7A69EE89AAA7EE8A0A3AEEA8AAB3
:103B6C0084ED030A00F0F2FE84ED030A6B6A39EE71
:103B7C00280AF0EE687A83ED000A6B6BE9EEAA7AFC
:103B8C0083ED00AA6B6CC3ED007AF0EE679A00F03F
:103B9C00DDFE60EE087AEB6AFDEEE77AB0EE4A0ADB
:103BAC00F8EEE77A87EE887A83ED007A00F0CEFEA5
:103BBC0060EE087AEB6BFDEEE77AB0EE690AF8EE90
:103BCC00E77A87EE887A83ED007A00F0BFFE20EE6C
:103BDC00080AEB6CBDEEC00AB5EEC09AB8EEC00A8E
:103BEC00F1EE10FAC0EE087AC3ED007AD4ED017A4A
:103BFC006B6DCCBF78EEA78A78EEE78AC3ED008AAE
:103C0C00EB6DE2681A6003B0BDEC068B30BDDFEDE6
:103C1C00059A63E777BE7F3F6F12833A0AD7233C3E
:103C2C00DB0F494000000000D1F8D4300D4A1A6077
:103C3C00D1F894200C4B1360D1F89C201360D1F870
:103C4C00A4201360D1F8AC201360D1F8B420136019
:103C5C00D1F8BC201360D1F8C4201360D1F8CC206B
:103C6C00136070470000484200002041F0B52DED74
:103C7C00028B95B0FF230026D0F804719FEDA28A29
:103C8C008DF8043005460C468DF80D60D5F80821EA
:103C9C00BA4200F00781D4F89410606D5301D0ED56
:103CAC00007A91ED007AE918D1ED006A77EEA67AE8
:103CBC00F0EE486AE7EE876AFDEEE67A17EE901AA8
:103CCC00FE2900F30C810129B8BF0121C9B2E06DB6
:103CDC008DF80510E91891ED017AD0ED007AD4F841
:103CEC009C1077EE877A91ED007AF0EE486AE7EE59
:103CFC00876AFDEEE67A17EE901AFE2900F3ED8046
:103D0C000129B8BF0121C9B2606E8DF80610E918FF
:103D1C0091ED027AD0ED007AD4F8A41077EE877A80
:103D2C0091ED007AF0EE486AE7EE876AFDEEE67AEE
:103D3C0017EE901AFE2900F3CE800129B8BF01219D
:103D4C00C9B2E06E8DF80710E91891ED037AD0ED49
:103D5C00007AD4F8AC1077EE877A91ED007AF0EE19
:103D6C00486AE7EE876AFDEEE67A17EE901AFE29AE
:103D7C0000F3AF800129B8BF0121C9B2606F8DF883
:103D8C000810E91891ED047AD0ED007AD4F8B4104B
:103D9C0077EE877A91ED007AF0EE486AE7EE876A63
:103DAC00FDEEE67A17EE901AFE2900F390800129B9
:103DBC00B8BF0121C9B2E06F8DF80910E91891ED77
:103DCC00057AD0ED007AD4F8BC1077EE877A91EDB5
:103DDC00007AF0EE486AE7EE876AFDEEE67A17EEB7
:103DEC00901AFE2971DC0129B8BF0121C9B2D4F89F
:103DFC0084008DF80A10E91891ED067AD0ED007A5E
:103E0C00D4F8C41077EE877A91ED007AF0EE486A18
:103E1C00E7EE876AFDEEE67A17EE901AFE2952DC81
:103E2C000129B8BF0121C9B2D4F88C008DF80B1050
:103E3C002B4493ED077AD0ED007AD4F8CC3077EEA2
:103E4C00877A93ED007AF0EE486AE7EE876AFDEE2A
:103E5C00E67A17EE903AFE2B33DC012BB8BF012328
:103E6C00DBB2013202F00702C5F808218DF80C30E4
:103E7C008DF80D60FEF79AFC00283FF407AFD4F8DC
:103E8C00D430D3ED007AF5EEC07AF1EE10FA7FF76C
:103E9C00FDAE092101A8FEF77FFCD5F80821BA4236
:103EAC007FF4F9AEFEF782FCD4F8DC30C8B14FF0E9
:103EBC007E521A60FEF77AFCC8B915B0BDEC028BC5
:103ECC00F0BDFE23CDE7FE21AEE7FE218FE7FE21FC
:103EDC0071E7FE2152E7FE2133E7FE2114E7FE21B4
:103EEC00F5E600221A60FEF761FC0028E5D004A874
:103EFC004021FEF75DFC0028DFD004A802F0AEFCE8
:103F0C0015B0BDEC028BF0BD00000043D0F80031C1
:103F1C005A1CC0F80021D1F8D42092ED007AF7EEAB
:103F2C00007A37EE677A07EE903AF8EE677AF4EE9D
:103F3C00C77AF1EE10FA27DB10B4D0F804214B69E4
:103F4C001C6800EB421301321C60CC6924685C6075
:103F5C004C6A24689C60CC6A2468DC604C6B2468D6
:103F6C001C61CC6B24685C614C6C24689C61C96CD2
:103F7C000C68DC6102F007020021C0F80421C0F8D3
:103F8C0000115DF8044B7047704700BFC86E0D4BB5
:103F9C004FF07C5230B40260486F0B4C0260CA6F19
:103FAC000A481360D1F88450094A2B60D1F88C3040
:103FBC001C60D1F89C301860D1F8A4301A6030BC69
:103FCC00704700BF0AD7233CCDCC4C3DCDCCCC3D6B
:103FDC000AD7A33B30B42DED028BCB6E9FEDC97A83
:103FEC00D3ED007ADFEDC71A9FEDC75A9FEDC63AA5
:103FFC00D1F89C20D1F89450D1F8AC409FEDC34A35
:10400C00F4EEC77AF1EE10FAC8BF93ED007A4B6F5D
:10401C00D3ED007AF4EEE17AF1EE10FAC8BFD3EDED
:10402C00001ACB6FD3ED007AF4EEC57AF1EE10FAEC
:10403C00C8BF93ED005AD1F88430D3ED007AF4EE7A
:10404C00C37AF1EE10FAC8BF93ED003AD5ED007AC1
:10405C0094ED008AD2ED004AD1F8A4304D6E93ED68
:10406C00006AD2ED005ACA6DD3ED000AD2ED002AD7
:10407C00CB6A4C6B64EE854A65EE835AC4EE806A5B
:10408C0085EE801AF4EEC42AF1EE10FAF6EE005A20
:10409C0066EEA53AC8BFD2ED006A4A6AD8BFDFED1A
:1040AC009C6A92ED002ACA6BD3ED002ACB6926EEEE
:1040BC00076A21EE251A86EE050AD5ED005A94ED15
:1040CC00004A92ED006AD3ED004AF5EE404AC8BFB3
:1040DC0066EEA66AF1EE10FA27EE277A61EEA77A61
:1040EC0040F0E58066EE064AE4EE044AF4EEE64A59
:1040FC00F1EE10FA00F3EB8022EE077A62EEA77A6B
:10410C00D1F8B420D1F88C30D2ED008AD3ED006A0E
:10411C0063EE064AE5EE046A24EEA85A32EE444AEF
:10412C00A8EE457A32EEC66AA3EE847A66EEA86AE9
:10413C00B4EEE57AF1EE10FA00F2B680B1EE655A03
:10414C00B4EEC75AF1EE10FAA8BFB0EE457AE8EE1D
:10415C00267AE1EE067AF4EEE57AF1EE10FA00F248
:10416C00A080F1EE656AF4EEE76AF1EE10FAA8BFF2
:10417C00F0EE667A63EE806AF5EEC06AF1EE10FA44
:10418C0041DD60EEA11A81EE835A25EE011AB5EEDF
:10419C00C01AF1EE10FA36DD90ED005AA6EE845AF4
:1041AC00F0EE456A35EEC75AF4EEC56AF1EE10FA38
:1041BC000ADCB1EE655A35EE475AB4EEE65AF1EE2A
:1041CC0010FAB8BFB0EE665AD0ED014A80ED005A35
:1041DC00E1EE064A75EEE76AF4EEE64AF1EE10FA05
:1041EC000ADCF1EE656A76EEE76AF4EEE46AF1EE6B
:1041FC0010FAB8BFF0EE646AC0ED016A37EE057ACA
:10420C0077EEA67A02E0002303604360CB69D3ED1E
:10421C00006AF5EE406AF1EE10FA1ED1B4EEE52A12
:10422C00F1EE10FA5CD9F4EEE52AF1EE10FAB0EEEC
:10423C00657A63D8F1EE657AF4EEE27AF1EE10FA73
:10424C00B8BFF0EE627ADFED336AB0EE666AB0EEBC
:10425C00664AC0ED006AC0ED016A4B69DFED2D6A5C
:10426C00D3ED005AF4EEE65AF1EE10FA07D8F0EE60
:10427C00667AB0EE667AC0ED006AC0ED016ACB6C6E
:10428C0083ED007A4B6DC3ED007AD1F8BC3083ED31
:10429C00004AD1F8C43083ED006ABDEC028B30BC0F
:1042AC007047F0EE657A65E7B0EE657A4FE762EE3F
:1042BC00A24AE2EE024AF4EEE64AF1EE10FAC2BF6E
:1042CC00C6EEA48A22EE282A62EEA82A14E7DFEDB5
:1042DC00117AB0EE677AF0EE672AB0EE672A0FE734
:1042EC00B1EE657AB4EEC27AF1EE10FAF4EEE52A8C
:1042FC00B8BFB0EE427AF1EE10FA9BD9F0EE657AC7
:10430C00A1E700BFCDCCCC3D6F12833A0AD7233C3A
:10431C0017B7D138000000004B6D4FF080421A6087
:10432C00CA6D4FF07E5313604A6E1360CA6E1360F1
:10433C00704700BF30B44B6DCD6A4C69C8694A6A8E
:10434C0095ED005AD4ED007A90ED007AD2ED006A2A
:10435C00D3ED005ABDEEE56A16EE103A022B00F0D2
:10436C009A80032B00F08480012B51D077EE875A72
:10437C00B0EE084A75EEA65AF6EE004A85EE846A4F
:10438C00A5EE646ACA6D4FF07E5313604A6E1360DB
:10439C00CA6E1360CB6CD3ED005AFDEEE55A15EEE8
:1043AC00903A012B23D1F4EEC77AF1EE10FA58DDD6
:1043BC00F4EEE67AF1EE10FA7ED5CB6DF4EEC77A18
:1043CC000022F1EE10FA1A6009D5B4EEE67AF1EE9D
:1043DC0010FA77D4F4EEE67AF1EE10FA07D5B4EED3
:1043EC00E67AF1EE10FA02DDCB6E00221A604B6B0E
:1043FC0077EEC67A37EE467AC3ED007ACB6B83ED57
:10440C00007A76EEC66A4B6CC3ED006A30BC70471E
:10441C00F4EEC77AF1EE10FA8CBFB0EE476AB0EE4C
:10442C00676AB4EEE66AF1EE10FAF4EEC77A88BF6A
:10443C00B0EE666AF1EE10FAB4BFF0EE475AF0EE49
:10444C00675AF4EEE65AF1EE10FAF6EE004AB8BFEF
:10445C00F0EE665A76EE255A24EEC56AA5EEA46AED
:10446C0090E7B7D5B4EEE67AF1EE10FA2AD4B1E7BC
:10447C00F4EEC77AF1EE10FAB4BFF0EE475AF0EE54
:10448C00675AF4EEE65AF1EE10FAB8BFF0EE665A3F
:10449C0035EEC56A76E7F4EEC77AF1EE10FA8CBF0A
:1044AC00B0EE476AB0EE676AB4EEE66AF1EE10FA67
:1044BC0088BFB0EE666A65E7F4EEC77AF1EE10FAE3
:1044CC0083D494E74B6E00221A6083E710B52DED70
:1044DC00048B0C46C8696369496AE26AD0ED006ACC
:1044EC0091ED006A92ED008A93ED007AFDEEC77AA9
:1044FC0082B017EE903A042B00F29080DFE803F0C4
:10450C007B8E5C4D030076EEC87A76EE886AB6EE4A
:10451C00009A27EE898A26EE899AF1EE469AF0EEF9
:10452C00468AE36BD3ED007AB7EE000AF4EEC07A5C
:10453C00F1EE10FA05DD93ED000ABDEEC00AB8EEFF
:10454C00C00A626B02A9D2ED007A002341F8043D47
:10455C0027EE800A6846009300F098F9636CDDED55
:10456C00017ADDED006AC3ED008AE36C26EE887AF1
:10457C0083ED008A636DA7EEA87A83ED009A67EE4F
:10458C00887AE36DE6EEA97A83ED007A636EC3ED6B
:10459C00007A02B0BDEC048B10BD76EEC87ADFED6C
:1045AC00249A76EE886AB6EE009A27EE898AF0EEA7
:1045BC00698A26EE899AB4E736EEA67AF0EE087A86
:1045CC00C6EE275AC7EE278A88EE279A86EEA77A78
:1045DC00DFED186AC6EE267A88EE266A78EEE58A52
:1045EC0037EE257A78EEC98A37EEC68A37EE099A05
:1045FC00F1EE689A95E7F0EE087A86EEA79AC6EE89
:10460C00275A88EE277A76EEC68A39EE259A38EE46
:10461C00468A39EE079AF1EE689A82E7DFED049A42
:10462C00B0EE699AB0EE698AF0EE698A79E700BF5C
:10463C0000000000D7B3DD3F10B52DED028B0C460A
:10464C00C969626A636BD1ED008A92ED008AD3ED81
:10465C00007AB7EE000AF4EEC07AF1EE10FA82B0EE
:10466C0005DD93ED000ABDEEC00AB8EEC00AE26AA1
:10467C0002A9D2ED007A002341F8043D27EE800A0E
:10468C006846009300F002F963699DED017AD3ED61
:10469C00007ADDED006AFDEEE77A17EE903A67EEF0
:1046AC00087A28EE668AE6EEA87AA7EE288A042B0A
:1046BC0042D8DFE803F003412E251C00DFED226A0F
:1046CC00B0EE677AB0EE486AE36B83ED008A636CF8
:1046DC00C3ED007AE36C83ED006A636DC3ED006A91
:1046EC00E36D83ED007A02B0BDEC028B10BDB6EE2B
:1046FC00007A27EE876AF0EE486A27EEC77AE3E77E
:10470C00B6EE007A27EE876ADFED0F6A27EEC77ADE
:10471C00DAE7B6EE006A27EE867ADFED0C6A27EE52
:10472C00267AF1EE485AF0EE476AE5EE866A95EE87
:10473C00867AB0EE486AC7E79FED037AF0EE476AD7
:10474C00B0EE476AC0E700BF00000000D7B3DD3F02
:10475C002DE9F041C368934238BFC568836824BF14
:10476C00154616460F46D0E900122B4438BF2E468C
:10477C009342044616D2A846A368424619443846CA
:10478C00FBF7BEFEE36862685B1BE360A3681D4435
:10479C00A560A368934202D9A3689A1AA260304616
:1047AC00BDE8F08183689A1A2A44A6EB020807EB4D
:1047BC000800FBF7A5FE2168DEE700BF002A22DD1A
:1047CC00F0B40346C0685E680F78B04201F1010591
:1047DC001BD20A4405E0DC685E6815F8017BB44224
:1047EC000FD29C68D8680444B44228BFA41B1E682E
:1047FC003755DC68AA4204F10104A5EB0100DC602A
:10480C00E9D1F0BC7047002070470020F9E700BFE9
:10481C000346C06820B3F0B4002019E09C685F68C0
:10482C00661C9E60D3F808C01E68BC45365D02D37A
:10483C009C68E71B9F60DC68904204F1FF34DC60ED
:10484C000ADA0A2E00F1010005F8016B1AD029468C
:10485C00DC680D46002CE1D120B90020F0BC70477B
:10486C0000207047DA68596802448A42F5D89A6881
:10487C0090429A6888BF5218121A9A60DA681044EB
:10488C00D860EAE700230B70F0BC7047DFED2C7AA0
:10489C009FED2C7A2C4A20EE270A70B4C0EE077AD2
:1048AC00BDEEE77A17EE103A002BB8BF03F1FF33D9
:1048BC0007EE103ADCB2F8EEC76AC4F1FF0502EB62
:1048CC00850502EB840677EEE67A95ED007A96ED97
:1048DC00015A96ED006AC4F58075F7EE006A02EB9A
:1048EC00850576EEE76A27EE877AD5ED005A67EEF6
:1048FC00857AC3F30123022BA6EEA57AE6EE867A1F
:10490C0019D0032B0FD0012B05D0C0ED007A70BC51
:10491C0081ED007A7047F1EE677A80ED007A70BC19
:10492C00C1ED007A7047B1EE477A80ED007A70BC29
:10493C00C1ED007A7047F1EE677AB1EE477AE4E7A1
:10494C0000008043DB0FC93F809A010808B52DEDAC
:10495C00028B9FED0E8A30EE080AB5EEC00AF1EE1E
:10496C0010FA08D4DFED0A0A04F066FF30EE480AAC
:10497C00BDEC028B08BDB1EE400ADFED050A04F078
:10498C005BFF38EE400ABDEC028B08BDDB0F4940E3
:10499C00DB0FC940B5EEC01AF1EE10FAD0ED007A7B
:1049AC00C6BFF7EE000A77EEA00A77EEE00AB4EE87
:1049BC00E00AF1EE10FA1ADBF5EEC00ADFED0D7A23
:1049CC00F1EE10FAB8BFF0EE670ADFED0B7ADFED0F
:1049DC00096AC0ED000A60EE277AB7EE000AF4EE21
:1049EC00E07AF1EE10FAC8BFB0EE660A7047F0EE4E
:1049FC00400AEAE700000000A4707D3F2DE9F84F63
:104A0C00284BD3F800A0BAF1000F41D0DFF89CB0CE
:104A1C0017468846814600245E4602E00134544520
:104A2C0036D0202256F8041B484605F0F7F8054608
:104A3C000028F3D15BF8241051B31B4C42F6903391
:104A4C00E2582AB320462B4604E00133934200F18E
:104A5C0034001DD0D0F810618E42F6D1D0F814611C
:104A6C00B045F2D1342202FB0344D4F810319B6CD4
:104A7C0073B1D4F82011202201EB4511384605F012
:104A8C00CDF840B1D4F810319B6C0135AB42F0D865
:104A9C000020BDE8F88FD4F81C0100EBC500BDE880
:104AAC00F88F00BF90800108C42300202000002054
:104ABC0010B5334CA378072B35D8DFE803F0090E7B
:104ACC0013202F252A042F48BDE8104005F020B8EC
:104ADC002D48BDE8104005F01BB82C48BDE810402F
:104AEC0005F016B82A4805F013F842F6D033E35C0B
:104AFC00042B20D8DFE803F03F3B37331C0025485C
:104B0C00BDE8104005F004B82348BDE8104004F09F
:104B1C00FFBF2248BDE8104004F0FABF2048BDE8B2
:104B2C00104004F0F5BF1F48BDE8104004F0F0BF82
:104B3C001D4804F0EDFF42F6C4331C48E15804F064
:104B4C00E7FF42F6C8331A48E15804F0E1FF42F699
:104B5C00CC331848E158BDE8104004F0D9BF1648D2
:104B6C0004F0D6FFE7E7154804F0D2FFE3E714485A
:104B7C0004F0CEFFDFE7134804F0CAFFDBE700BF09
:104B8C00C42300208CA20108C0A20108A4A2010821
:104B9C00DCA20108C0A30108F8A3010814A40108B1
:104BAC00D8A301082CA401085CA3010878A3010870
:104BBC0090A30108A8A3010840A3010824A301089D
:104BCC0010A30108F4A201082DE9F04F2DED068B7E
:104BDC00D648D74C8DB004F09BFF42F69033202280
:104BEC00E158D44804F094FF42F69C334FF48062B1
:104BFC00E158D14804F08CFF42F6A0334FF48062A8
:104C0C00E158CE4804F084FFFFF752FFCC4A42F63D
:104C1C00A43392ED009AE658FCF7F6FD42F6B03359
:104C2C000B90E558FCF7F0FD07EE905A07EE100AD2
:104C3C00F8EE677AB8EE477AC24887EE878A04F0B6
:104C4C0067FF2378DBB2012B00F0C683C0F0C08372
:104C5C00022B00F0E981B5EEC08AF1EE10FA00F3F8
:104C6C00EC8142F69435B848615904F051FF635910
:104C7C00002B6ED0B5EEC09AF1EE10FA40F32583FE
:104C8C00AB4DDFF8F4A29FEDB1AADFF8F0B2DFED87
:104C9C00B09A002755F8043FD3F80C809E69FCF7B6
:104CAC00B3FD07EE906A07EE100AF8EEE77AB8EE5D
:104CBC00477A2B68C7EE878A5E6AFCF7A5FD2B68DE
:104CCC00D8F80420D3F80080D3F80490013707EE0D
:104CDC00906A07EE100AF8EEE77AB8EE477A166893
:104CEC0087EE878A68EE0A7A17EE900AFCF74CF882
:104CFC0068EE8A7ACDE9040117EE900AFCF744F8C5
:104D0C00CDE902013046FCF73FF84A46CDE90001F7
:104D1C004146584604F0FCFEC8EE897A67EEA97A43
:104D2C0017EE900AFCF730F8C8EE097A80468946EF
:104D3C0067EEA97A17EE900AFCF726F84B46CDE9F8
:104D4C0000014246834804F0E3FEDAF80030BB422F
:104D5C00A0D8814A42F6A833D2ED009AE658FCF767
:104D6C0053FD42F6B4330B90E558FCF74DFD07EEBE
:104D7C00905A07EE100AF8EE677AB8EE477A774841
:104D8C0087EE878A04F0C4FE6378DBB2012B00F057
:104D9C001783C0F01983022B00F0B881B5EEC08ADE
:104DAC00F1EE10FA00F3BB8142F698356C4861596C
:104DBC0004F0AEFE6359002B68D0F5EEC09AF1EE0C
:104DCC0010FA40F32582674D674FDFED60AADFF8DC
:104DDC00B0A19FED5FAA002655F8043FD3F80C80D4
:104DEC0093ED078AFCF710FD07EE900A2B68F8EE9E
:104DFC00677AB8EEC88A013688EE279A93ED0A8A4C
:104E0C00FCF702FD07EE900AB8EEC88AF8EE677A56
:104E1C00D8F80C302A68C8EE278AD2F800B0186887
:104E2C00FBF7B2FF8046894668EEAA7A17EE900A25
:104E3C00FBF7AAFF69EE2A7ACDE9020117EE900A78
:104E4C00FBF7A2FF42464B46CDE9000159465046BE
:104E5C0004F05EFEC9EE297A67EE8A7A17EE900AA4
:104E6C00FBF792FFC8EEA97A8046894667EE8A7AEC
:104E7C0017EE900AFBF788FF4B46CDE9000142463E
:104E8C00344804F045FE3B68B342A5D842F6AC3337
:104E9C00E658FCF7B9FC42F6B8330B90E558FCF732
:104EAC00B3FC07EE905A07EE100AF8EE677AB8EEEC
:104EBC00477A2E4887EE878A04F02AFEB5EEC08A20
:104ECC00F1EE10FA20DD07EE906AB8EE677ADDEDB0
:104EDC000B7ADFED1E8AF8EE677AC7EE276A66EE6C
:104EEC00A87A17EE900AFBF74FFF68EE287A064671
:104EFC0017EE900A0F46FBF747FF3246CDE900014B
:104F0C003B461B4804F004FE42F6903519486159A3
:104F1C0004F0FEFD6259002A77D0054FDFED0B8AB5
:104F2C00DFF860B0DFF860A000252FE0F89F0108E3
:104F3C00C423002014A001082CA0010844A00108DF
:104F4C00804F002058A00108F4A0010800247449E7
:104F5C000000C8423CA10108844F002050A1010868
:104F6C00F0A10108442400205C4F002034A2010869
:104F7C0048A2010860A20108584F002024A1010892
:104F8C0020A2010878A20108544F0020D7F8103154
:104F9C001B6A342606FB0546E3B396ED4C8AFCF7F8
:104FAC0033FC07EE900AB8EEC88AF8EE677AD6F8AA
:104FBC003C6188EE279AFCF727FC0135343708EE64
:104FCC00100A69EE287AB8EE488A17EE900AFBF7B9
:104FDC00DBFE07EE906AF8EEE77A804687EE887A79
:104FEC008946D7F8DC6067EE287A17EE900AFBF753
:104FFC00CBFE4246CDE900014B463146584604F003
:10500C0087FDDAF80020AA42C0D80DB0BDEC068BA3
:10501C00BDE8F08F0135954207F13407B6D30DB0DA
:10502C00BDEC068BBDE8F08FD14804F071FDB5EEF8
:10503C00C08AF1EE10FA7FF714AE07EE906AB8EE64
:10504C00677ADDED0B7ADFEDCB8ACB48F8EE677A29
:10505C0042F6B033C7EE279A42F6A432A158E25872
:10506C0004F056FD69EEA87A17EE900AFBF78CFE59
:10507C0068EE287A064617EE900A0F46FBF784FE78
:10508C00B5EEC09AF1EE10FA8046894640F30C81D9
:10509C00F7EE007A87EE897A42F69435DFEDB77A2F
:1050AC009FEDB7AAC7EE277A17EE900AFBF76CFEB6
:1050BC00C8EE097ACDE9080167EE8A7A17EE900AF4
:1050CC00FBF762FEC9EE897ACDE9060167EE8A7AB2
:1050DC0017EE900AFBF758FE69EE287ACDE9040129
:1050EC0017EE900AFBF750FE3B46CDE90201324623
:1050FC00CDE90089A34804F00BFD6159A24804F0E6
:10510C0007FD6359002B7FF4BBAD22E69F4804F0EA
:10511C00FFFCB5EEC08AF1EE10FA7FF745AE07EE54
:10512C00906AB8EE677ADDED0B7ADFED928A9848DB
:10513C00F8EE677A42F6B43387EE279A42F6A83235
:10514C00A158E25804F0E4FC69EE287A17EE900AB4
:10515C00FBF71AFE68EE287A064617EE900A0F4601
:10516C00FBF712FEF5EEC09AF1EE10FA8046894676
:10517C003DDDF7EE007A87EEA97A42F69835DFED41
:10518C007F7A9FED7FAAC7EE277A17EE900AFBF77E
:10519C00FBFDC8EE297ACDE9080167EE8A7A17EE95
:1051AC00900AFBF7F1FDC9EE297ACDE9060167EE0D
:1051BC008A7A17EE900AFBF7E7FD69EEA87ACDE93B
:1051CC00040117EE900AFBF7DFFD3B46CDE9020127
:1051DC003246CDE900896F4804F09AFC61596E485B
:1051EC0004F096FC6359002B7FF4EDAD4EE642F6CD
:1051FC0098353B463246CDE90089684804F088FC76
:10520C006159654804F084FC6359002B3FF43EAEB1
:10521C00634D644F9FED579ADFF898B1002655F80F
:10522C00043FD3F80C8093ED078AFCF7EDFA07EEF8
:10523C00900A2B68F8EE677AB8EEC88AD3ED0A8A22
:10524C00C8EE279AFCF7E0FAD8F80C302A68D2F8A6
:10525C0000A0013608EE100AF8EEE88AB8EE488A8B
:10526C001868FBF791FDC8EE887A8046894667EE90
:10527C00897A17EE900AFBF787FD69EE897ACDE9FA
:10528C00020117EE900AFBF77FFD4B46CDE90001BA
:10529C0042465146584604F03BFC434804F038FC67
:1052AC003B68B342BBD8F1E542F694353B463246F7
:1052BC00CDE900893D4804F02BFC6159324804F0DB
:1052CC0027FC6359002B3FF444AD394DDFF8E8A0BF
:1052DC009FED288ADFF8E490002755F8043FD3F8B7
:1052EC000CB09E69FCF790FA07EE906A07EE100A74
:1052FC00F8EEE77AB8EE477A2B68C7EE878A5E6AD3
:10530C00FCF782FA2B68DBF80410D3F800B0D3F862
:10531C000480013707EE100A07EE906AF8EE476A30
:10532C00F8EEE77A0E6887EEA67A67EE087A17EE43
:10533C00900AFBF729FD68EE887ACDE9040117EE97
:10534C00900AFBF721FDCDE902013046FBF71CFD6D
:10535C004246CDE900015946484604F0D9FB1248B3
:10536C0004F0D6FBDAF80030BB42B6D8F1E400BF4B
:10537C006CA0010800247449A8A0010800007A441C
:10538C000000C842C0A00108F4A0010864A10108F3
:10539C00A0A10108BCA10108F0A1010808A2010804
:1053AC00442400205C4F002068A001080CA10108D7
:1053BC00C423002020A20108584F002024A101087A
:1053CC00074804F0A5FBE9E4064804F0A1FBE5E47A
:1053DC00054804F09DFB3EE4044804F099FB3AE4D4
:1053EC0078A101088CA1010894A0010880A00108F3
:1053FC002DE9F04F044683B010B3774D42F690364A
:10540C00AB591E2B08D942F6D433EB5C012B46D991
:10541C00002003B0BDE8F08F42F69C39826C55F841
:10542C00093040F2FE381344434514D942F6D433C4
:10543C00EB5C012BECD80146684804F069FBE7E70C
:10544C00654A42F6D433D35C012BE1D8644804F0AE
:10545C005FFB2046DDE7D0ED117AFBEECF7A17EE3D
:10546C00900AFBF791FC41EC100B04F05DF951EC48
:10547C00100BFBF7B9FF42F6A0334FEA800AEB584A
:10548C000AEB0307474510D942F6D433EB5C012BEA
:10549C00BED82146534804F03BFB0020B9E7014637
:1054AC00514804F035FB0020B3E755F809C0A95961
:1054BC004E4E342203F51E5002FB01520CF1F20E3B
:1054CC001030D6F80090C2F8104105EBCE0E2844EF
:1054DC000026C2F81CE1C2F824A1C2F8180182F817
:1054EC004061B9F1000F0FD0DFF8088101939246AB
:1054FC00324658F804BB5C4562D0DBF848B0013248
:10550C004A455E44F5D1019B4FF0340808FB015825
:10551C000022C8F8142181B12F4EC14601E0B045DC
:10552C000BD0D6F81021944206F13406F7D1D9F8F5
:10553C0014210132C9F81421F1E7A26C62446245CE
:10554C00664614D94FF000099A46724606F1F208E5
:10555C0005EBC8080136C8F800905260A36C0CEB40
:10556C000308B04502F10802F0D85346424642F611
:10557C009C36BB42AA5108D242F2907C0026EA1813
:10558C000133BB4202F80C60F9D142F6A033EF5064
:10559C00E36A23B17146984742F69033E95842F6D4
:1055AC009032342303FB01530131A9500021012215
:1055BC00C3F830111046C3F83C1183F8402128E79A
:1055CC000B4B03EB461BCAF820B10132A36C4A45C6
:1055DC001E448ED197E700BFC423002060A50108AC
:1055EC00D8A40108B4A5010810A5010890800108F1
:1055FC0094800108200000202DE9F843504CFCF762
:10560C00F7F82378DBB2012B064600F087807ED3B7
:10561C00022B7AD0FCF7ECF8002242F69433C4F853
:10562C000421D4F80421E3589A42054651D2454F3F
:10563C00A7F128082EE0D4F8043104EB8303A5EB82
:10564C0009055B689D61D4F8043104EB83034D4676
:10565C005B685A6AD4F8043104EB83035B689B697A
:10566C009A42D4F8043104EB83035B68CCBF5A6ACA
:10567C009A69D4F8043104EB83035B685A62D4F85A
:10568C000431D8F800200133C4F80431D4F80431C3
:10569C0093421ED2D4F8043104EB83035B681A687E
:1056AC0097ED000AD4F80431526A04EB83035B686B
:1056BC009868D4F8043104EB83035B68D96890478D
:1056CC00FCF796F8A8428146B5D9FCF797F8054443
:1056DC00B1E74FF0FF33C4F8043123780BB9012341
:1056EC002370FCF785F88642054624D342F6A43392
:1056FC00761BE65042F6B032A058E158884294BF6F
:10570C00E258A25842F6B033E250BDE8F8830223C7
:10571C0001222370A2706370BDE8F883D4F80431C1
:10572C00002B05DB02232370A3706370BDE8F883A4
:10573C00002323706EE7FCF761F80644D6E700BF40
:10574C00C4230020804F00202DE9F843FCF750F8CB
:10575C00424C8046FCF74CF8002342F69032C4F8D9
:10576C000C31D4F80C31A258934258D206463C4F17
:10577C0034252EE0D4F80C3105FB0343A6EB0906C7
:10578C00C3F83061D4F80C3105FB03434E46D3F813
:10579C003C21D4F80C3105FB0343D3F830319A4249
:1057AC00D4F80C313A6805FB0343CCBFD3F83C1159
:1057BC00D3F83011D4F80C3105FB0343C3F83C117A
:1057CC00D4F80C310133C4F80C31D4F80C319342B9
:1057DC0025D2D4F80C3105FB0343D3F810311B6AE6
:1057EC00002BEDD0D4F80C11D4F80C21D4F80C31DA
:1057FC0005FB014105FB0343D1F8101105FB0242E7
:10580C00D2F818010A6AD3F81C119047FBF7F0FF85
:10581C00B0428146AED9FBF7F1FF0644AAE74FF040
:10582C00FF33C4F80C31FBF7E3FF8045054611D379
:10583C0042F6AC33A8EB0505E55042F6B832A05859
:10584C00E158884294BFE258A25842F6B833E2506D
:10585C00BDE8F883FBF7D2FF8044E9E7C4230020BE
:10586C00544F0020104B2DE9F0411F68B7B1DFF801
:10587C003C8006460024454602E00134BC420DD073
:10588C00202255F8041B304604F0C8F90028F4D146
:10589C0058F82400BDE8F041FFF7AABD0020BDE890
:1058AC00F041FFF7A5BD00BF90800108200000204B
:1058BC002DE9F04F1F4B83B01B680193B3B3002746
:1058CC00DFF88090DFF880B0DFF880A03D46B84666
:1058DC0059F8041F584604F01BF9D9F8001050462B
:1058EC00896C04F015F9D9F800101348496C04F0D0
:1058FC000FF9D9F80010896C2944414511D90F4C86
:10590C000F4E04EB48142146304604F001F9D9F847
:10591C000010896C08F101082944414504F1200468
:10592C00F1D8019B01379F420D46D1D103B0BDE8A0
:10593C00F08F00BF9080010814A601089480010824
:10594C0024A601081C00002048A6010808A601088E
:10595C002DE9F04F42F69033DFF8DC9159F8033023
:10596C0089B0002B00F0B2800023CB464E46079343
:10597C00D6F81421D6F81011624804F0C9F8D6F8FC
:10598C0010316148996C04F0C3F8D6F810315F48B7
:10599C00596C04F0BDF8D6F824115D4804F0B8F841
:1059AC00D6F81C115B4804F0B3F8D6F818115A4815
:1059BC0004F0AEF8594804F0ABF8079A342303FB13
:1059CC0002B393F84031DBB2012B00F09780C0F0AA
:1059DC009180022B40F08A80514804F099F8D6F857
:1059EC0010319B6C002B67D000274FF03408D6F891
:1059FC001C314C4A03EBC70CD2F800A0DCF8043085
:105A0C005868BAF1000F6ED04D460024D5F810310D
:105A1C00996C59B1D5F81C3198420FD0002202E094
:105A2C00083398420AD001328A42F9D101345445E4
:105A3C0005F13405EAD100231B68FFDE08FB04B333
:105A4C00D6F82041D3F81021D3F814310693DCF8A2
:105A5C0004300592596804EB47144D460020D5F8E4
:105A6C0010319B6C6BB1D5F81C21914239D04FF0A1
:105A7C00000E02E0083291422BD00EF1010E9E4531
:105A8C00F8D10130504505F13405E8D10025DCF89A
:105A9C0004305B681868FBF777F9DDE90523CDE97D
:105AAC00020100952146204804F032F8D6F8103156
:105ABC009B6C0137BB429AD81A4B079A1B68013270
:105ACC009342079206F134063FF652AF09B0BDE897
